{
  "contractName": "Election",
  "abi": [
    {
      "inputs": [],
      "payable": false,
      "stateMutability": "nonpayable",
      "type": "constructor"
    },
    {
      "anonymous": false,
      "inputs": [
        {
          "indexed": true,
          "internalType": "uint256",
          "name": "_candidateId",
          "type": "uint256"
        }
      ],
      "name": "votedEvent",
      "type": "event"
    },
    {
      "constant": true,
      "inputs": [
        {
          "internalType": "uint256",
          "name": "",
          "type": "uint256"
        }
      ],
      "name": "candidateList",
      "outputs": [
        {
          "internalType": "uint256",
          "name": "candidateId",
          "type": "uint256"
        },
        {
          "internalType": "uint256",
          "name": "electionId",
          "type": "uint256"
        },
        {
          "internalType": "uint256",
          "name": "symbolNumber",
          "type": "uint256"
        },
        {
          "internalType": "uint256",
          "name": "voteCount",
          "type": "uint256"
        },
        {
          "internalType": "string",
          "name": "presidentName",
          "type": "string"
        },
        {
          "internalType": "string",
          "name": "presidentDept",
          "type": "string"
        },
        {
          "internalType": "string",
          "name": "vpresidentName",
          "type": "string"
        },
        {
          "internalType": "string",
          "name": "vpresidentDept",
          "type": "string"
        },
        {
          "internalType": "string",
          "name": "pledges",
          "type": "string"
        }
      ],
      "payable": false,
      "stateMutability": "view",
      "type": "function"
    },
    {
      "constant": true,
      "inputs": [
        {
          "internalType": "uint256",
          "name": "",
          "type": "uint256"
        }
      ],
      "name": "electionList",
      "outputs": [
        {
          "internalType": "uint256",
          "name": "electionId",
          "type": "uint256"
        },
        {
          "internalType": "string",
          "name": "electionName",
          "type": "string"
        },
        {
          "internalType": "uint256",
          "name": "isStarted",
          "type": "uint256"
        }
      ],
      "payable": false,
      "stateMutability": "view",
      "type": "function"
    },
    {
      "constant": true,
      "inputs": [
        {
          "internalType": "uint256",
          "name": "",
          "type": "uint256"
        }
      ],
      "name": "voterList",
      "outputs": [
        {
          "internalType": "uint256",
          "name": "studentId",
          "type": "uint256"
        }
      ],
      "payable": false,
      "stateMutability": "view",
      "type": "function"
    },
    {
      "constant": false,
      "inputs": [
        {
          "internalType": "uint256",
          "name": "_electionId",
          "type": "uint256"
        },
        {
          "internalType": "string",
          "name": "_presidentName",
          "type": "string"
        },
        {
          "internalType": "string",
          "name": "_presidentDept",
          "type": "string"
        },
        {
          "internalType": "string",
          "name": "_vpresidentName",
          "type": "string"
        },
        {
          "internalType": "string",
          "name": "_vpresidentDept",
          "type": "string"
        },
        {
          "internalType": "string",
          "name": "_pledges",
          "type": "string"
        }
      ],
      "name": "addCandidate",
      "outputs": [],
      "payable": false,
      "stateMutability": "nonpayable",
      "type": "function"
    },
    {
      "constant": true,
      "inputs": [],
      "name": "getCandidateCount",
      "outputs": [
        {
          "internalType": "uint256",
          "name": "",
          "type": "uint256"
        }
      ],
      "payable": false,
      "stateMutability": "view",
      "type": "function"
    },
    {
      "constant": false,
      "inputs": [
        {
          "internalType": "string",
          "name": "_electionName",
          "type": "string"
        }
      ],
      "name": "addElection",
      "outputs": [],
      "payable": false,
      "stateMutability": "nonpayable",
      "type": "function"
    },
    {
      "constant": true,
      "inputs": [],
      "name": "getElectionCount",
      "outputs": [
        {
          "internalType": "uint256",
          "name": "",
          "type": "uint256"
        }
      ],
      "payable": false,
      "stateMutability": "view",
      "type": "function"
    },
    {
      "constant": false,
      "inputs": [
        {
          "internalType": "uint256",
          "name": "_studentId",
          "type": "uint256"
        }
      ],
      "name": "addVoter",
      "outputs": [],
      "payable": false,
      "stateMutability": "nonpayable",
      "type": "function"
    },
    {
      "constant": true,
      "inputs": [],
      "name": "getVoterCount",
      "outputs": [
        {
          "internalType": "uint256",
          "name": "",
          "type": "uint256"
        }
      ],
      "payable": false,
      "stateMutability": "view",
      "type": "function"
    },
    {
      "constant": false,
      "inputs": [
        {
          "internalType": "uint256",
          "name": "_studentId",
          "type": "uint256"
        },
        {
          "internalType": "uint256",
          "name": "_candidateId",
          "type": "uint256"
        }
      ],
      "name": "vote",
      "outputs": [],
      "payable": false,
      "stateMutability": "nonpayable",
      "type": "function"
    },
    {
      "constant": true,
      "inputs": [
        {
          "internalType": "uint256",
          "name": "_studentId",
          "type": "uint256"
        },
        {
          "internalType": "uint256",
          "name": "_electionId",
          "type": "uint256"
        }
      ],
      "name": "checkVoted",
      "outputs": [
        {
          "internalType": "bool",
          "name": "",
          "type": "bool"
        }
      ],
      "payable": false,
      "stateMutability": "view",
      "type": "function"
    },
    {
      "constant": false,
      "inputs": [
        {
          "internalType": "uint256",
          "name": "_electionId",
          "type": "uint256"
        }
      ],
      "name": "startElection",
      "outputs": [],
      "payable": false,
      "stateMutability": "nonpayable",
      "type": "function"
    },
    {
      "constant": false,
      "inputs": [
        {
          "internalType": "uint256",
          "name": "_electionId",
          "type": "uint256"
        }
      ],
      "name": "endElection",
      "outputs": [],
      "payable": false,
      "stateMutability": "nonpayable",
      "type": "function"
    }
  ],
  "bytecode": "0x60806040523480156200001157600080fd5b5062000027630133c51162000ed860201b60201c565b6200003c630133c51262000ed860201b60201c565b6200006660405180606001604052806021815260200162002bba6021913962000f2860201b60201c565b620000906040518060600160405280602b815260200162002d7c602b913962000f2860201b60201c565b620000ba60405180606001604052806031815260200162002ceb6031913962000f2860201b60201c565b620000e460405180606001604052806021815260200162002d5b6021913962000f2860201b60201c565b6200010e6040518060600160405280602b815260200162002b8f602b913962000f2860201b60201c565b6200013860405180606001604052806031815260200162002b5e6031913962000f2860201b60201c565b620001626040518060600160405280602b815260200162002c97602b913962000f2860201b60201c565b62000174600362000fd160201b60201c565b62000186600462000fd160201b60201c565b62000198600062000ff860201b60201c565b620001aa600162000ff860201b60201c565b620001bc600262000ff860201b60201c565b620002c060006040518060400160405280600981526020017fed998deab8b8eb8f9900000000000000000000000000000000000000000000008152506040518060400160405280601281526020017fecbbb4ed93a8ed84b0eab3b5ed9599eab3bc00000000000000000000000000008152506040518060400160405280600981526020017fed959ceb8ba4ec97b000000000000000000000000000000000000000000000008152506040518060400160405280600c81526020017feab2bdec9881ed9599eab3bc000000000000000000000000000000000000000081525060405180606001604052806029815260200162002cc2602991396200102060201b60201c565b620003c460006040518060400160405280600981526020017feab980ecb2a0ec889800000000000000000000000000000000000000000000008152506040518060400160405280600c81526020017feab2bdec9881ed9599eab3bc00000000000000000000000000000000000000008152506040518060400160405280600981526020017febb0b1eab2bdebacb800000000000000000000000000000000000000000000008152506040518060400160405280601281526020017fec9584eb8f99ebb3b4ec9ca1ed9599eab3bc00000000000000000000000000008152506040518060600160405280602e815260200162002c2a602e91396200102060201b60201c565b620004c860006040518060400160405280600981526020017feab980ec9881ed9dac00000000000000000000000000000000000000000000008152506040518060400160405280601281526020017fec82aced9a8cebb3b5eca780ed9599eab3bc00000000000000000000000000008152506040518060400160405280600981526020017feab980eca3bcec988100000000000000000000000000000000000000000000008152506040518060400160405280601281526020017fecbbb4ed93a8ed84b0eab3b5ed9599eab3bc000000000000000000000000000081525060405180606001604052806026815260200162002b38602691396200102060201b60201c565b61019a60008081548110620004d957fe5b9060005260206000209060090201600301819055506102ea60006001815481106200050057fe5b90600052602060002090600902016003018190555061024d60006002815481106200052757fe5b9060005260206000209060090201600301819055506200064060016040518060400160405280600981526020017feab095eca480ec838100000000000000000000000000000000000000000000008152506040518060400160405280600f81526020017fec839debaa85eab3bced9599eab3bc00000000000000000000000000000000008152506040518060400160405280600981526020017fed959cec849ceca78400000000000000000000000000000000000000000000008152506040518060400160405280601281526020017fecbbb4ed93a8ed84b0eab3b5ed9599eab3bc00000000000000000000000000008152506040518060600160405280603f815260200162002d1c603f91396200102060201b60201c565b6200074460016040518060400160405280600981526020017fec9db4ec8898ec9e8400000000000000000000000000000000000000000000008152506040518060400160405280601281526020017febb3b4eab1b4eab480eba6aced9599eab3bc00000000000000000000000000008152506040518060400160405280600981526020017fed99a9ecb998ec988100000000000000000000000000000000000000000000008152506040518060400160405280600f81526020017feb8f84ec8b9ceab3b5ed9599eab3bc00000000000000000000000000000000008152506040518060600160405280603f815260200162002c58603f91396200102060201b60201c565b60e560006003815481106200075557fe5b90600052602060002090600902016003018190555060d660006004815481106200077b57fe5b9060005260206000209060090201600301819055506200089460026040518060400160405280600981526020017feb85b8ec8ab9ed989c00000000000000000000000000000000000000000000008152506040518060400160405280601281526020017fecbbb4ed93a8ed84b0eab3b5ed9599eab3bc00000000000000000000000000008152506040518060400160405280600981526020017fecb0a8ebafbced988100000000000000000000000000000000000000000000008152506040518060400160405280601281526020017fecbbb4ed93a8ed84b0eab3b5ed9599eab3bc00000000000000000000000000008152506040518060800160405280604f815260200162002bdb604f91396200102060201b60201c565b60576000600581548110620008a557fe5b906000526020600020906009020160030181905550620009be60036040518060400160405280600981526020017fed998deab8b8eb8f9900000000000000000000000000000000000000000000008152506040518060400160405280601281526020017fecbbb4ed93a8ed84b0eab3b5ed9599eab3bc00000000000000000000000000008152506040518060400160405280600981526020017fed959ceb8ba4ec97b000000000000000000000000000000000000000000000008152506040518060400160405280600c81526020017feab2bdec9881ed9599eab3bc000000000000000000000000000000000000000081525060405180606001604052806029815260200162002cc2602991396200102060201b60201c565b62000ac260036040518060400160405280600981526020017feab980ecb2a0ec889800000000000000000000000000000000000000000000008152506040518060400160405280600c81526020017feab2bdec9881ed9599eab3bc00000000000000000000000000000000000000008152506040518060400160405280600981526020017febb0b1eab2bdebacb800000000000000000000000000000000000000000000008152506040518060400160405280601281526020017fec9584eb8f99ebb3b4ec9ca1ed9599eab3bc00000000000000000000000000008152506040518060600160405280602e815260200162002c2a602e91396200102060201b60201c565b62000bc660036040518060400160405280600981526020017feab980ec9881ed9dac00000000000000000000000000000000000000000000008152506040518060400160405280601281526020017fec82aced9a8cebb3b5eca780ed9599eab3bc00000000000000000000000000008152506040518060400160405280600981526020017feab980eca3bcec988100000000000000000000000000000000000000000000008152506040518060400160405280601281526020017fecbbb4ed93a8ed84b0eab3b5ed9599eab3bc000000000000000000000000000081525060405180606001604052806026815260200162002b38602691396200102060201b60201c565b62000cca60046040518060400160405280600981526020017feab095eca480ec838100000000000000000000000000000000000000000000008152506040518060400160405280600f81526020017fec839debaa85eab3bced9599eab3bc00000000000000000000000000000000008152506040518060400160405280600981526020017fed959cec849ceca78400000000000000000000000000000000000000000000008152506040518060400160405280601281526020017fecbbb4ed93a8ed84b0eab3b5ed9599eab3bc00000000000000000000000000008152506040518060600160405280603f815260200162002d1c603f91396200102060201b60201c565b62000dce60046040518060400160405280600981526020017fec9db4ec8898ec9e8400000000000000000000000000000000000000000000008152506040518060400160405280601281526020017febb3b4eab1b4eab480eba6aced9599eab3bc00000000000000000000000000008152506040518060400160405280600981526020017fed99a9ecb998ec988100000000000000000000000000000000000000000000008152506040518060400160405280600f81526020017feb8f84ec8b9ceab3b5ed9599eab3bc00000000000000000000000000000000008152506040518060600160405280603f815260200162002c58603f91396200102060201b60201c565b62000ed260056040518060400160405280600981526020017feb85b8ec8ab9ed989c00000000000000000000000000000000000000000000008152506040518060400160405280601281526020017fecbbb4ed93a8ed84b0eab3b5ed9599eab3bc00000000000000000000000000008152506040518060400160405280600981526020017fecb0a8ebafbced988100000000000000000000000000000000000000000000008152506040518060400160405280601281526020017fecbbb4ed93a8ed84b0eab3b5ed9599eab3bc00000000000000000000000000008152506040518060800160405280604f815260200162002bdb604f91396200102060201b60201c565b6200151f565b600160028181805490500191508162000ef2919062001246565b5060006001600280549050039050816002828154811062000f0f57fe5b9060005260206000209060020201600001819055505050565b6001808181805490500191508162000f4191906200127b565b50600060018080549050039050806001828154811062000f5d57fe5b906000526020600020906003020160000181905550816001828154811062000f8157fe5b9060005260206000209060030201600101908051906020019062000fa7929190620012b0565b5060006001828154811062000fb857fe5b9060005260206000209060030201600201819055505050565b600180828154811062000fe057fe5b90600052602060002090600302016002018190555050565b6002600182815481106200100857fe5b90600052602060002090600302016002018190555050565b60016000818180549050019150816200103a919062001337565b506000600160008054905003905080600082815481106200105757fe5b90600052602060002090600902016000018190555086600082815481106200107b57fe5b90600052602060002090600902016001018190555060008082815481106200109f57fe5b9060005260206000209060090201600301819055508560008281548110620010c357fe5b90600052602060002090600902016004019080519060200190620010e9929190620012b0565b508460008281548110620010f957fe5b906000526020600020906009020160050190805190602001906200111f929190620012b0565b5083600082815481106200112f57fe5b9060005260206000209060090201600601908051906020019062001155929190620012b0565b5082600082815481106200116557fe5b906000526020600020906009020160070190805190602001906200118b929190620012b0565b5081600082815481106200119b57fe5b90600052602060002090600902016008019080519060200190620011c1929190620012b0565b50600080600090505b60008054905081101562001217578860008281548110620011e757fe5b9060005260206000209060090201600101541415620012095781806001019250505b8080600101915050620011ca565b5080600083815481106200122757fe5b9060005260206000209060090201600201819055505050505050505050565b81548183558181111562001276576002028160020283600052602060002091820191016200127591906200136c565b5b505050565b815481835581811115620012ab57600302816003028360005260206000209182019101620012aa9190620013a8565b5b505050565b828054600181600116156101000203166002900490600052602060002090601f016020900481019282601f10620012f357805160ff191683800117855562001324565b8280016001018555821562001324579182015b828111156200132357825182559160200191906001019062001306565b5b509050620013339190620013ec565b5090565b815481835581811115620013675760090281600902836000526020600020918201910162001366919062001414565b5b505050565b620013a591905b80821115620013a157600080820160009055600182016000620013979190620014b0565b5060020162001373565b5090565b90565b620013e991905b80821115620013e557600080820160009055600182016000620013d39190620014d3565b600282016000905550600301620013af565b5090565b90565b6200141191905b808211156200140d576000816000905550600101620013f3565b5090565b90565b620014ad91905b80821115620014a957600080820160009055600182016000905560028201600090556003820160009055600482016000620014579190620014d3565b600582016000620014699190620014d3565b6006820160006200147b9190620014d3565b6007820160006200148d9190620014d3565b6008820160006200149f9190620014d3565b506009016200141b565b5090565b90565b5080546000825590600052602060002090810190620014d09190620013ec565b50565b50805460018160011615610100020316600290046000825580601f10620014fb57506200151c565b601f0160209004906000526020600020908101906200151b9190620013ec565b5b50565b611609806200152f6000396000f3fe608060405234801561001057600080fd5b50600436106100cf5760003560e01c80636d32dc4b1161008c578063b13c744b11610066578063b13c744b146105f8578063b384abef1461086b578063d8f7a0bb146108a3578063defb908f146108d1576100cf565b80636d32dc4b1461054c5780637a9ef4d91461057a5780639c98bcbb146105ca576100cf565b806311174a29146100d457806320e4e88b146100f2578063213785a01461041357806330a5634714610431578063358b9d971461044f57806350e2e8af1461050a575b600080fd5b6100dc610986565b6040518082815260200191505060405180910390f35b610411600480360360c081101561010857600080fd5b81019080803590602001909291908035906020019064010000000081111561012f57600080fd5b82018360208201111561014157600080fd5b8035906020019184600183028401116401000000008311171561016357600080fd5b91908080601f016020809104026020016040519081016040528093929190818152602001838380828437600081840152601f19601f820116905080830192505050505050509192919290803590602001906401000000008111156101c657600080fd5b8201836020820111156101d857600080fd5b803590602001918460018302840111640100000000831117156101fa57600080fd5b91908080601f016020809104026020016040519081016040528093929190818152602001838380828437600081840152601f19601f8201169050808301925050505050505091929192908035906020019064010000000081111561025d57600080fd5b82018360208201111561026f57600080fd5b8035906020019184600183028401116401000000008311171561029157600080fd5b91908080601f016020809104026020016040519081016040528093929190818152602001838380828437600081840152601f19601f820116905080830192505050505050509192919290803590602001906401000000008111156102f457600080fd5b82018360208201111561030657600080fd5b8035906020019184600183028401116401000000008311171561032857600080fd5b91908080601f016020809104026020016040519081016040528093929190818152602001838380828437600081840152601f19601f8201169050808301925050505050505091929192908035906020019064010000000081111561038b57600080fd5b82018360208201111561039d57600080fd5b803590602001918460018302840111640100000000831117156103bf57600080fd5b91908080601f016020809104026020016040519081016040528093929190818152602001838380828437600081840152601f19601f820116905080830192505050505050509192919290505050610993565b005b61041b610ba0565b6040518082815260200191505060405180910390f35b610439610bad565b6040518082815260200191505060405180910390f35b6105086004803603602081101561046557600080fd5b810190808035906020019064010000000081111561048257600080fd5b82018360208201111561049457600080fd5b803590602001918460018302840111640100000000831117156104b657600080fd5b91908080601f016020809104026020016040519081016040528093929190818152602001838380828437600081840152601f19601f820116905080830192505050505050509192919290505050610bb9565b005b6105366004803603602081101561052057600080fd5b8101908080359060200190929190505050610c5b565b6040518082815260200191505060405180910390f35b6105786004803603602081101561056257600080fd5b8101908080359060200190929190505050610c86565b005b6105b06004803603604081101561059057600080fd5b810190808035906020019092919080359060200190929190505050610cac565b604051808215151515815260200191505060405180910390f35b6105f6600480360360208110156105e057600080fd5b8101908080359060200190929190505050610d84565b005b6106246004803603602081101561060e57600080fd5b8101908080359060200190929190505050610dab565b604051808a8152602001898152602001888152602001878152602001806020018060200180602001806020018060200186810386528b818151815260200191508051906020019080838360005b8381101561068c578082015181840152602081019050610671565b50505050905090810190601f1680156106b95780820380516001836020036101000a031916815260200191505b5086810385528a818151815260200191508051906020019080838360005b838110156106f25780820151818401526020810190506106d7565b50505050905090810190601f16801561071f5780820380516001836020036101000a031916815260200191505b50868103845289818151815260200191508051906020019080838360005b8381101561075857808201518184015260208101905061073d565b50505050905090810190601f1680156107855780820380516001836020036101000a031916815260200191505b50868103835288818151815260200191508051906020019080838360005b838110156107be5780820151818401526020810190506107a3565b50505050905090810190601f1680156107eb5780820380516001836020036101000a031916815260200191505b50868103825287818151815260200191508051906020019080838360005b83811015610824578082015181840152602081019050610809565b50505050905090810190601f1680156108515780820380516001836020036101000a031916815260200191505b509e50505050505050505050505050505060405180910390f35b6108a16004803603604081101561088157600080fd5b8101908080359060200190929190803590602001909291905050506110fe565b005b6108cf600480360360208110156108b957600080fd5b810190808035906020019092919050505061120f565b005b6108fd600480360360208110156108e757600080fd5b810190808035906020019092919050505061125c565b6040518084815260200180602001838152602001828103825284818151815260200191508051906020019080838360005b8381101561094957808201518184015260208101905061092e565b50505050905090810190601f1680156109765780820380516001836020036101000a031916815260200191505b5094505050505060405180910390f35b6000600280549050905090565b60016000818180549050019150816109ab919061132b565b506000600160008054905003905080600082815481106109c757fe5b90600052602060002090600902016000018190555086600082815481106109ea57fe5b9060005260206000209060090201600101819055506000808281548110610a0d57fe5b9060005260206000209060090201600301819055508560008281548110610a3057fe5b90600052602060002090600902016004019080519060200190610a5492919061135d565b508460008281548110610a6357fe5b90600052602060002090600902016005019080519060200190610a8792919061135d565b508360008281548110610a9657fe5b90600052602060002090600902016006019080519060200190610aba92919061135d565b508260008281548110610ac957fe5b90600052602060002090600902016007019080519060200190610aed92919061135d565b508160008281548110610afc57fe5b90600052602060002090600902016008019080519060200190610b2092919061135d565b50600080600090505b600080549050811015610b72578860008281548110610b4457fe5b9060005260206000209060090201600101541415610b655781806001019250505b8080600101915050610b29565b508060008381548110610b8157fe5b9060005260206000209060090201600201819055505050505050505050565b6000600180549050905090565b60008080549050905090565b60018081818054905001915081610bd091906113dd565b506000600180805490500390508060018281548110610beb57fe5b9060005260206000209060030201600001819055508160018281548110610c0e57fe5b90600052602060002090600302016001019080519060200190610c3292919061135d565b50600060018281548110610c4257fe5b9060005260206000209060030201600201819055505050565b60028181548110610c6857fe5b90600052602060002090600202016000915090508060000154905081565b6001808281548110610c9457fe5b90600052602060002090600302016002018190555050565b600080600090505b600280549050811015610d78578360028281548110610ccf57fe5b9060005260206000209060020201600001541415610d6b5760008090505b60028281548110610cfa57fe5b906000526020600020906002020160010180549050811015610d69578360028381548110610d2457fe5b90600052602060002090600202016001018281548110610d4057fe5b90600052602060002001541415610d5c57600192505050610d7e565b8080600101915050610ced565b505b8080600101915050610cb4565b50600090505b92915050565b600260018281548110610d9357fe5b90600052602060002090600302016002018190555050565b60008181548110610db857fe5b9060005260206000209060090201600091509050806000015490806001015490806002015490806003015490806004018054600181600116156101000203166002900480601f016020809104026020016040519081016040528092919081815260200182805460018160011615610100020316600290048015610e7c5780601f10610e5157610100808354040283529160200191610e7c565b820191906000526020600020905b815481529060010190602001808311610e5f57829003601f168201915b505050505090806005018054600181600116156101000203166002900480601f016020809104026020016040519081016040528092919081815260200182805460018160011615610100020316600290048015610f1a5780601f10610eef57610100808354040283529160200191610f1a565b820191906000526020600020905b815481529060010190602001808311610efd57829003601f168201915b505050505090806006018054600181600116156101000203166002900480601f016020809104026020016040519081016040528092919081815260200182805460018160011615610100020316600290048015610fb85780601f10610f8d57610100808354040283529160200191610fb8565b820191906000526020600020905b815481529060010190602001808311610f9b57829003601f168201915b505050505090806007018054600181600116156101000203166002900480601f0160208091040260200160405190810160405280929190818152602001828054600181600116156101000203166002900480156110565780601f1061102b57610100808354040283529160200191611056565b820191906000526020600020905b81548152906001019060200180831161103957829003601f168201915b505050505090806008018054600181600116156101000203166002900480601f0160208091040260200160405190810160405280929190818152602001828054600181600116156101000203166002900480156110f45780601f106110c9576101008083540402835291602001916110f4565b820191906000526020600020905b8154815290600101906020018083116110d757829003601f168201915b5050505050905089565b600080828154811061110c57fe5b906000526020600020906009020160010154905060008090505b6002805490508110156111dc57836002828154811061114157fe5b90600052602060002090600202016000015414156111cf576002818154811061116657fe5b90600052602060002090600202016001018290806001815401808255809150509060018203906000526020600020016000909192909190915055506001600084815481106111b057fe5b9060005260206000209060090201600301600082825401925050819055505b8080600101915050611126565b50817ffff3c900d938d21d0990d786e819f29b8d05c1ef587b462b939609625b684b1660405160405180910390a2505050565b6001600281818054905001915081611227919061140f565b5060006001600280549050039050816002828154811061124357fe5b9060005260206000209060020201600001819055505050565b6001818154811061126957fe5b9060005260206000209060030201600091509050806000015490806001018054600181600116156101000203166002900480601f01602080910402602001604051908101604052809291908181526020018280546001816001161561010002031660029004801561131b5780601f106112f05761010080835404028352916020019161131b565b820191906000526020600020905b8154815290600101906020018083116112fe57829003601f168201915b5050505050908060020154905083565b815481835581811115611358576009028160090283600052602060002091820191016113579190611441565b5b505050565b828054600181600116156101000203166002900490600052602060002090601f016020900481019282601f1061139e57805160ff19168380011785556113cc565b828001600101855582156113cc579182015b828111156113cb5782518255916020019190600101906113b0565b5b5090506113d991906114d0565b5090565b81548183558181111561140a5760030281600302836000526020600020918201910161140991906114f5565b5b505050565b81548183558181111561143c5760020281600202836000526020600020918201910161143b9190611534565b5b505050565b6114cd91905b808211156114c957600080820160009055600182016000905560028201600090556003820160009055600482016000611480919061156b565b600582016000611490919061156b565b6006820160006114a0919061156b565b6007820160006114b0919061156b565b6008820160006114c0919061156b565b50600901611447565b5090565b90565b6114f291905b808211156114ee5760008160009055506001016114d6565b5090565b90565b61153191905b8082111561152d5760008082016000905560018201600061151c919061156b565b6002820160009055506003016114fb565b5090565b90565b61156891905b808211156115645760008082016000905560018201600061155b91906115b3565b5060020161153a565b5090565b90565b50805460018160011615610100020316600290046000825580601f1061159157506115b0565b601f0160209004906000526020600020908101906115af91906114d0565b5b50565b50805460008255906000526020600020908101906115d191906114d0565b5056fea265627a7a72315820f11eb3177cebc50b97d9a5e7b991b8ebbd9f94834bc875e78fd022fed2277d5a64736f6c63430005100032ecb59ceab3a0ec9d9820ed9599eab590eba5bc20eba78ceb93a4eab2a0ec8ab5eb8b88eb8ba432303230ed9599eb8584eb8f8420ecbbb4ed93a8ed84b0eab3b5ed9599eab3bc20ed9599ec839ded9a8c20ec84a0eab1b032303230ed9599eb8584eb8f8420ec9db4eab3b5eb8c80ed959920ed9599ec839ded9a8c20ec84a0eab1b032303139ed9599eb8584eb8f8420ecb49ded9599ec839ded9a8c20ec84a0eab1b0312e20ecbbb4ed93a8ed84b0eab3b5ed9599eab3bc20eab3b5ec95bd31ec9e85eb8b88eb8ba42e0a322e20ecbbb4ed93a8ed84b0eab3b5ed9599eab3bc20eab3b5ec95bd32ec9e85eb8b88eb8ba42e312e20eca081eab7b9eca08120ec868ced86b50a322e20eab095ec9d98ec8ba420ed9998eab2bd20eab09cec84a0312e20eab8b0ed98b832ebb28820eab3b5ec95bd31ec9e85eb8b88eb8ba42e0a322e20eab8b0ed98b832ebb28820eab3b5ec95bd32ec9e85eb8b88eb8ba42e32303230ed9599eb8584eb8f8420ec9888ec88a0eb8c80ed959920ed9599ec839ded9a8c20ec84a0eab1b0312e20eab3b5ec95bd31ec9e85eb8b88eb8ba42e0a322e20eab3b5ec95bd32ec9e85eb8b88eb8ba42e32303139ed9599eb8584eb8f8420ecbbb4ed93a8ed84b0eab3b5ed9599eab3bc20ed9599ec839ded9a8c20ec84a0eab1b0312e20eab8b0ed98b831ebb28820eab3b5ec95bd31ec9e85eb8b88eb8ba42e0a322e20eab8b0ed98b831ebb28820eab3b5ec95bd32ec9e85eb8b88eb8ba42e32303230ed9599eb8584eb8f8420ecb49ded9599ec839ded9a8c20ec84a0eab1b032303139ed9599eb8584eb8f8420ec9db4eab3b5eb8c80ed959920ed9599ec839ded9a8c20ec84a0eab1b0",
  "source": "pragma solidity >=0.4.21 <0.7.0;\n\ncontract Election {\n\n  struct Candidate {  // \n    uint candidateId;\n    uint electionId;  //  \n    uint symbolNumber;  //  (   )\n    uint voteCount; // \n\n    //   \n    string presidentName;\n    string presidentDept;\n\n    //   \n    string vpresidentName;\n    string vpresidentDept;\n\n    string pledges; // \n  }\n\n  struct ElectionUhs {  //    Uhs \n    uint electionId;\n    string electionName;  //   (ex.  )\n    uint isStarted; // 0 :  , 1 :  , 2 : \n  }\n\n  struct Voter {\n    uint studentId; // \n    uint[] votedElection; //   \n  }\n\n  Candidate[] public candidateList;\n  ElectionUhs[] public electionList;\n  Voter[] public voterList;\n\n  function addCandidate(uint _electionId,\n    string memory _presidentName, string memory _presidentDept,\n    string memory _vpresidentName, string memory _vpresidentDept,\n    string memory _pledges) public {\n    candidateList.length += 1;\n    uint index = candidateList.length - 1;\n    candidateList[index].candidateId = index;\n    candidateList[index].electionId = _electionId;\n    candidateList[index].voteCount = 0;\n    candidateList[index].presidentName = _presidentName;\n    candidateList[index].presidentDept = _presidentDept;\n    candidateList[index].vpresidentName = _vpresidentName;\n    candidateList[index].vpresidentDept = _vpresidentDept;\n    candidateList[index].pledges = _pledges;\n\n    uint symbolNumber;\n    for(uint i=0; i<candidateList.length; i++) {\n      if(candidateList[i].electionId == _electionId) {\n        symbolNumber++;\n      }\n    }\n    candidateList[index].symbolNumber = symbolNumber;\n  }\n\n  function getCandidateCount() public view returns(uint) {\n    return candidateList.length;\n  }\n\n  function addElection(string memory _electionName) public {\n    electionList.length += 1;\n    uint index = electionList.length - 1;\n    electionList[index].electionId = index;\n    electionList[index].electionName = _electionName;\n    electionList[index].isStarted = 0;\n  }\n\n  function getElectionCount() public view returns(uint) {\n    return electionList.length;\n  }\n\n  function addVoter(uint _studentId) public {\n    voterList.length += 1;\n    uint index = voterList.length - 1;\n    voterList[index].studentId = _studentId;\n  }\n\n  function getVoterCount() public view returns(uint) {\n    return voterList.length;\n  }\n\n  // checkVoted == false  \n  function vote(uint _studentId, uint _candidateId) public {\n    uint electionId = candidateList[_candidateId].electionId;\n\n    for(uint i=0; i<voterList.length; i++) {\n      if(voterList[i].studentId == _studentId) {\n        voterList[i].votedElection.push(electionId); //   \n        candidateList[_candidateId].voteCount += 1; //  \n      }\n    }\n\n    emit votedEvent(_candidateId);\n  }\n\n  //   \n  function checkVoted(uint _studentId, uint _electionId) public view returns(bool) {\n    for(uint i=0; i<voterList.length; i++) {\n      if(voterList[i].studentId == _studentId) {\n        for(uint j=0; j<voterList[i].votedElection.length; j++) {\n          if(voterList[i].votedElection[j] == _electionId) {\n            return true;\n          }\n        }\n      }\n    }\n    return false;\n  }\n\n  function startElection(uint _electionId) public {  //  \n    electionList[_electionId].isStarted = 1;\n  }\n\n  function endElection(uint _electionId) public {  //  \n    electionList[_electionId].isStarted = 2;\n  }\n\n  /*\n  //    \n  function getElectionState(uint _electionId) public view returns(bool) {\n    return electionList[_electionId].isStarted;\n  }\n\n  //    \n  function getCount(uint _index) public view returns(uint, uint, uint) {\n    return (candidateList[_index].electionId, candidateList[_index].candidateId,\n      candidateList[_index].voteCount);\n  }\n  */\n\n  //  \n  event votedEvent (\n    uint indexed _candidateId\n  );\n\n  constructor () public {\n    // \n    addVoter(20170001);\n    addVoter(20170002);\n\n    // \n    addElection(\"2019  \");\n    addElection(\"2019   \");\n    addElection(\"2019   \");\n    addElection(\"2020  \");\n    addElection(\"2020   \");\n    addElection(\"2020   \");\n    addElection(\"2020   \");\n\n    //  \n    startElection(3); startElection(4);\n\n    //  \n    endElection(0); endElection(1); endElection(2);\n\n    // 2019   \n    addCandidate(0, \"\", \"\", \"\", \"\", \"1. 1.\\n2. 2.\");\n    addCandidate(0, \"\", \"\", \"\", \"\", \"1.  \\n2.   \");\n    addCandidate(0, \"\", \"\", \"\", \"\", \"  \");\n    candidateList[0].voteCount = 410;\n    candidateList[1].voteCount = 746;\n    candidateList[2].voteCount = 589;\n\n    // 2019    \n    addCandidate(1, \"\", \"\", \"\", \"\", \"1. 1 1.\\n2. 1 2.\");\n    addCandidate(1, \"\", \"\", \"\", \"\", \"1. 2 1.\\n2. 2 2.\");\n    candidateList[3].voteCount = 229;\n    candidateList[4].voteCount = 214;\n\n    // 2019    \n    addCandidate(2, \"\", \"\", \"\", \"\", \"1.  1.\\n2.  2.\");\n    candidateList[5].voteCount = 87;\n\n    // 2020   \n    addCandidate(3, \"\", \"\", \"\", \"\", \"1. 1.\\n2. 2.\");\n    addCandidate(3, \"\", \"\", \"\", \"\", \"1.  \\n2.   \");\n    addCandidate(3, \"\", \"\", \"\", \"\", \"  \");\n\n    // 2020    \n    addCandidate(4, \"\", \"\", \"\", \"\", \"1. 1 1.\\n2. 1 2.\");\n    addCandidate(4, \"\", \"\", \"\", \"\", \"1. 2 1.\\n2. 2 2.\");\n\n    // 2020    \n    addCandidate(5, \"\", \"\", \"\", \"\", \"1.  1.\\n2.  2.\");\n  }\n}\n",
  "sourcePath": "C:\\Users\\minju\\blockchain-project\\hyupsung-election-app-test\\contracts\\Election.sol",
  "compiler": {
    "name": "solc",
    "version": "0.5.16+commit.9c3226ce.Emscripten.clang"
  },
  "schemaVersion": "3.1.0",
  "updatedAt": "2020-06-18T02:01:16.828Z",
  "networkType": "ethereum",
  "devdoc": {
    "methods": {}
  },
  "userdoc": {
    "methods": {}
  }
}