{
  "contractName": "Election",
  "abi": [
    {
      "inputs": [],
      "payable": false,
      "stateMutability": "nonpayable",
      "type": "constructor"
    },
    {
      "anonymous": false,
      "inputs": [
        {
          "indexed": true,
          "internalType": "uint256",
          "name": "_candidateId",
          "type": "uint256"
        }
      ],
      "name": "votedEvent",
      "type": "event"
    },
    {
      "constant": true,
      "inputs": [
        {
          "internalType": "uint256",
          "name": "",
          "type": "uint256"
        }
      ],
      "name": "candidateList",
      "outputs": [
        {
          "internalType": "uint256",
          "name": "candidateId",
          "type": "uint256"
        },
        {
          "internalType": "uint256",
          "name": "electionId",
          "type": "uint256"
        },
        {
          "internalType": "uint256",
          "name": "symbolNumber",
          "type": "uint256"
        },
        {
          "internalType": "uint256",
          "name": "voteCount",
          "type": "uint256"
        },
        {
          "internalType": "string",
          "name": "presidentName",
          "type": "string"
        },
        {
          "internalType": "string",
          "name": "presidentDept",
          "type": "string"
        },
        {
          "internalType": "string",
          "name": "vpresidentName",
          "type": "string"
        },
        {
          "internalType": "string",
          "name": "vpresidentDept",
          "type": "string"
        },
        {
          "internalType": "string",
          "name": "pledges",
          "type": "string"
        }
      ],
      "payable": false,
      "stateMutability": "view",
      "type": "function"
    },
    {
      "constant": true,
      "inputs": [
        {
          "internalType": "uint256",
          "name": "",
          "type": "uint256"
        }
      ],
      "name": "electionList",
      "outputs": [
        {
          "internalType": "uint256",
          "name": "electionId",
          "type": "uint256"
        },
        {
          "internalType": "string",
          "name": "electionName",
          "type": "string"
        },
        {
          "internalType": "uint256",
          "name": "isStarted",
          "type": "uint256"
        },
        {
          "internalType": "uint256",
          "name": "collegeId",
          "type": "uint256"
        },
        {
          "internalType": "uint256",
          "name": "deptId",
          "type": "uint256"
        }
      ],
      "payable": false,
      "stateMutability": "view",
      "type": "function"
    },
    {
      "constant": true,
      "inputs": [
        {
          "internalType": "uint256",
          "name": "",
          "type": "uint256"
        }
      ],
      "name": "voterList",
      "outputs": [
        {
          "internalType": "uint256",
          "name": "studentId",
          "type": "uint256"
        }
      ],
      "payable": false,
      "stateMutability": "view",
      "type": "function"
    },
    {
      "constant": false,
      "inputs": [
        {
          "internalType": "uint256",
          "name": "_electionId",
          "type": "uint256"
        },
        {
          "internalType": "string",
          "name": "_presidentName",
          "type": "string"
        },
        {
          "internalType": "string",
          "name": "_presidentDept",
          "type": "string"
        },
        {
          "internalType": "string",
          "name": "_vpresidentName",
          "type": "string"
        },
        {
          "internalType": "string",
          "name": "_vpresidentDept",
          "type": "string"
        },
        {
          "internalType": "string",
          "name": "_pledges",
          "type": "string"
        }
      ],
      "name": "addCandidate",
      "outputs": [],
      "payable": false,
      "stateMutability": "nonpayable",
      "type": "function"
    },
    {
      "constant": true,
      "inputs": [],
      "name": "getCandidateCount",
      "outputs": [
        {
          "internalType": "uint256",
          "name": "",
          "type": "uint256"
        }
      ],
      "payable": false,
      "stateMutability": "view",
      "type": "function"
    },
    {
      "constant": false,
      "inputs": [
        {
          "internalType": "string",
          "name": "_electionName",
          "type": "string"
        },
        {
          "internalType": "uint256",
          "name": "_collegeId",
          "type": "uint256"
        },
        {
          "internalType": "uint256",
          "name": "_deptId",
          "type": "uint256"
        }
      ],
      "name": "addElection",
      "outputs": [],
      "payable": false,
      "stateMutability": "nonpayable",
      "type": "function"
    },
    {
      "constant": true,
      "inputs": [],
      "name": "getElectionCount",
      "outputs": [
        {
          "internalType": "uint256",
          "name": "",
          "type": "uint256"
        }
      ],
      "payable": false,
      "stateMutability": "view",
      "type": "function"
    },
    {
      "constant": false,
      "inputs": [
        {
          "internalType": "uint256",
          "name": "_studentId",
          "type": "uint256"
        }
      ],
      "name": "addVoter",
      "outputs": [],
      "payable": false,
      "stateMutability": "nonpayable",
      "type": "function"
    },
    {
      "constant": true,
      "inputs": [],
      "name": "getVoterCount",
      "outputs": [
        {
          "internalType": "uint256",
          "name": "",
          "type": "uint256"
        }
      ],
      "payable": false,
      "stateMutability": "view",
      "type": "function"
    },
    {
      "constant": false,
      "inputs": [
        {
          "internalType": "uint256",
          "name": "_studentId",
          "type": "uint256"
        },
        {
          "internalType": "uint256",
          "name": "_candidateId",
          "type": "uint256"
        }
      ],
      "name": "vote",
      "outputs": [],
      "payable": false,
      "stateMutability": "nonpayable",
      "type": "function"
    },
    {
      "constant": true,
      "inputs": [
        {
          "internalType": "uint256",
          "name": "_studentId",
          "type": "uint256"
        },
        {
          "internalType": "uint256",
          "name": "_electionId",
          "type": "uint256"
        }
      ],
      "name": "checkVoted",
      "outputs": [
        {
          "internalType": "bool",
          "name": "",
          "type": "bool"
        }
      ],
      "payable": false,
      "stateMutability": "view",
      "type": "function"
    },
    {
      "constant": false,
      "inputs": [
        {
          "internalType": "uint256",
          "name": "_electionId",
          "type": "uint256"
        }
      ],
      "name": "startElection",
      "outputs": [],
      "payable": false,
      "stateMutability": "nonpayable",
      "type": "function"
    },
    {
      "constant": false,
      "inputs": [
        {
          "internalType": "uint256",
          "name": "_electionId",
          "type": "uint256"
        }
      ],
      "name": "endElection",
      "outputs": [],
      "payable": false,
      "stateMutability": "nonpayable",
      "type": "function"
    }
  ],
  "bytecode": "0x608060405234801561001057600080fd5b50611738806100206000396000f3fe608060405234801561001057600080fd5b50600436106100cf5760003560e01c80637a9ef4d91161008c578063b384abef11610066578063b384abef146107b0578063d8f7a0bb146107e8578063defb908f14610816578063e7630782146108d9576100cf565b80637a9ef4d9146104bf5780639c98bcbb1461050f578063b13c744b1461053d576100cf565b806311174a29146100d457806320e4e88b146100f2578063213785a01461041357806330a563471461043157806350e2e8af1461044f5780636d32dc4b14610491575b600080fd5b6100dc6109a8565b6040518082815260200191505060405180910390f35b610411600480360360c081101561010857600080fd5b81019080803590602001909291908035906020019064010000000081111561012f57600080fd5b82018360208201111561014157600080fd5b8035906020019184600183028401116401000000008311171561016357600080fd5b91908080601f016020809104026020016040519081016040528093929190818152602001838380828437600081840152601f19601f820116905080830192505050505050509192919290803590602001906401000000008111156101c657600080fd5b8201836020820111156101d857600080fd5b803590602001918460018302840111640100000000831117156101fa57600080fd5b91908080601f016020809104026020016040519081016040528093929190818152602001838380828437600081840152601f19601f8201169050808301925050505050505091929192908035906020019064010000000081111561025d57600080fd5b82018360208201111561026f57600080fd5b8035906020019184600183028401116401000000008311171561029157600080fd5b91908080601f016020809104026020016040519081016040528093929190818152602001838380828437600081840152601f19601f820116905080830192505050505050509192919290803590602001906401000000008111156102f457600080fd5b82018360208201111561030657600080fd5b8035906020019184600183028401116401000000008311171561032857600080fd5b91908080601f016020809104026020016040519081016040528093929190818152602001838380828437600081840152601f19601f8201169050808301925050505050505091929192908035906020019064010000000081111561038b57600080fd5b82018360208201111561039d57600080fd5b803590602001918460018302840111640100000000831117156103bf57600080fd5b91908080601f016020809104026020016040519081016040528093929190818152602001838380828437600081840152601f19601f8201169050808301925050505050505091929192905050506109b5565b005b61041b610bc2565b6040518082815260200191505060405180910390f35b610439610bcf565b6040518082815260200191505060405180910390f35b61047b6004803603602081101561046557600080fd5b8101908080359060200190929190505050610bdb565b6040518082815260200191505060405180910390f35b6104bd600480360360208110156104a757600080fd5b8101908080359060200190929190505050610c06565b005b6104f5600480360360408110156104d557600080fd5b810190808035906020019092919080359060200190929190505050610c2c565b604051808215151515815260200191505060405180910390f35b61053b6004803603602081101561052557600080fd5b8101908080359060200190929190505050610d04565b005b6105696004803603602081101561055357600080fd5b8101908080359060200190929190505050610d2b565b604051808a8152602001898152602001888152602001878152602001806020018060200180602001806020018060200186810386528b818151815260200191508051906020019080838360005b838110156105d15780820151818401526020810190506105b6565b50505050905090810190601f1680156105fe5780820380516001836020036101000a031916815260200191505b5086810385528a818151815260200191508051906020019080838360005b8381101561063757808201518184015260208101905061061c565b50505050905090810190601f1680156106645780820380516001836020036101000a031916815260200191505b50868103845289818151815260200191508051906020019080838360005b8381101561069d578082015181840152602081019050610682565b50505050905090810190601f1680156106ca5780820380516001836020036101000a031916815260200191505b50868103835288818151815260200191508051906020019080838360005b838110156107035780820151818401526020810190506106e8565b50505050905090810190601f1680156107305780820380516001836020036101000a031916815260200191505b50868103825287818151815260200191508051906020019080838360005b8381101561076957808201518184015260208101905061074e565b50505050905090810190601f1680156107965780820380516001836020036101000a031916815260200191505b509e50505050505050505050505050505060405180910390f35b6107e6600480360360408110156107c657600080fd5b81019080803590602001909291908035906020019092919050505061107e565b005b610814600480360360208110156107fe57600080fd5b8101908080359060200190929190505050611238565b005b6108426004803603602081101561082c57600080fd5b8101908080359060200190929190505050611285565b6040518086815260200180602001858152602001848152602001838152602001828103825286818151815260200191508051906020019080838360005b8381101561089a57808201518184015260208101905061087f565b50505050905090810190601f1680156108c75780820380516001836020036101000a031916815260200191505b50965050505050505060405180910390f35b6109a6600480360360608110156108ef57600080fd5b810190808035906020019064010000000081111561090c57600080fd5b82018360208201111561091e57600080fd5b8035906020019184600183028401116401000000008311171561094057600080fd5b91908080601f016020809104026020016040519081016040528093929190818152602001838380828437600081840152601f19601f8201169050808301925050505050505091929192908035906020019092919080359060200190929190505050611360565b005b6000600280549050905090565b60016000818180549050019150816109cd919061144a565b506000600160008054905003905080600082815481106109e957fe5b9060005260206000209060090201600001819055508660008281548110610a0c57fe5b9060005260206000209060090201600101819055506000808281548110610a2f57fe5b9060005260206000209060090201600301819055508560008281548110610a5257fe5b90600052602060002090600902016004019080519060200190610a7692919061147c565b508460008281548110610a8557fe5b90600052602060002090600902016005019080519060200190610aa992919061147c565b508360008281548110610ab857fe5b90600052602060002090600902016006019080519060200190610adc92919061147c565b508260008281548110610aeb57fe5b90600052602060002090600902016007019080519060200190610b0f92919061147c565b508160008281548110610b1e57fe5b90600052602060002090600902016008019080519060200190610b4292919061147c565b50600080600090505b600080549050811015610b94578860008281548110610b6657fe5b9060005260206000209060090201600101541415610b875781806001019250505b8080600101915050610b4b565b508060008381548110610ba357fe5b9060005260206000209060090201600201819055505050505050505050565b6000600180549050905090565b60008080549050905090565b60028181548110610be857fe5b90600052602060002090600202016000915090508060000154905081565b6001808281548110610c1457fe5b90600052602060002090600502016002018190555050565b600080600090505b600280549050811015610cf8578360028281548110610c4f57fe5b9060005260206000209060020201600001541415610ceb5760008090505b60028281548110610c7a57fe5b906000526020600020906002020160010180549050811015610ce9578360028381548110610ca457fe5b90600052602060002090600202016001018281548110610cc057fe5b90600052602060002001541415610cdc57600192505050610cfe565b8080600101915050610c6d565b505b8080600101915050610c34565b50600090505b92915050565b600260018281548110610d1357fe5b90600052602060002090600502016002018190555050565b60008181548110610d3857fe5b9060005260206000209060090201600091509050806000015490806001015490806002015490806003015490806004018054600181600116156101000203166002900480601f016020809104026020016040519081016040528092919081815260200182805460018160011615610100020316600290048015610dfc5780601f10610dd157610100808354040283529160200191610dfc565b820191906000526020600020905b815481529060010190602001808311610ddf57829003601f168201915b505050505090806005018054600181600116156101000203166002900480601f016020809104026020016040519081016040528092919081815260200182805460018160011615610100020316600290048015610e9a5780601f10610e6f57610100808354040283529160200191610e9a565b820191906000526020600020905b815481529060010190602001808311610e7d57829003601f168201915b505050505090806006018054600181600116156101000203166002900480601f016020809104026020016040519081016040528092919081815260200182805460018160011615610100020316600290048015610f385780601f10610f0d57610100808354040283529160200191610f38565b820191906000526020600020905b815481529060010190602001808311610f1b57829003601f168201915b505050505090806007018054600181600116156101000203166002900480601f016020809104026020016040519081016040528092919081815260200182805460018160011615610100020316600290048015610fd65780601f10610fab57610100808354040283529160200191610fd6565b820191906000526020600020905b815481529060010190602001808311610fb957829003601f168201915b505050505090806008018054600181600116156101000203166002900480601f0160208091040260200160405190810160405280929190818152602001828054600181600116156101000203166002900480156110745780601f1061104957610100808354040283529160200191611074565b820191906000526020600020905b81548152906001019060200180831161105757829003601f168201915b5050505050905089565b600080828154811061108c57fe5b9060005260206000209060090201600101549050600080905060008090505b6002805490508110156110f65784600282815481106110c657fe5b90600052602060002090600202016000015414156110e3576110f6565b60018201915080806001019150506110ab565b5060028054905081141561110e5761110d84611238565b5b60008090505b60028054905081101561120457846002828154811061112f57fe5b90600052602060002090600202016000015414156111f7576111518584610c2c565b15801561117b5750600180848154811061116757fe5b906000526020600020906005020160020154145b156111f6576002818154811061118d57fe5b90600052602060002090600202016001018390806001815401808255809150509060018203906000526020600020016000909192909190915055506001600085815481106111d757fe5b9060005260206000209060090201600301600082825401925050819055505b5b8080600101915050611114565b50827ffff3c900d938d21d0990d786e819f29b8d05c1ef587b462b939609625b684b1660405160405180910390a250505050565b600160028181805490500191508161125091906114fc565b5060006001600280549050039050816002828154811061126c57fe5b9060005260206000209060020201600001819055505050565b6001818154811061129257fe5b9060005260206000209060050201600091509050806000015490806001018054600181600116156101000203166002900480601f0160208091040260200160405190810160405280929190818152602001828054600181600116156101000203166002900480156113445780601f1061131957610100808354040283529160200191611344565b820191906000526020600020905b81548152906001019060200180831161132757829003601f168201915b5050505050908060020154908060030154908060040154905085565b60018081818054905001915081611377919061152e565b50600060018080549050039050806001828154811061139257fe5b90600052602060002090600502016000018190555083600182815481106113b557fe5b906000526020600020906005020160010190805190602001906113d992919061147c565b506000600182815481106113e957fe5b906000526020600020906005020160020181905550826001828154811061140c57fe5b906000526020600020906005020160030181905550816001828154811061142f57fe5b90600052602060002090600502016004018190555050505050565b815481835581811115611477576009028160090283600052602060002091820191016114769190611560565b5b505050565b828054600181600116156101000203166002900490600052602060002090601f016020900481019282601f106114bd57805160ff19168380011785556114eb565b828001600101855582156114eb579182015b828111156114ea5782518255916020019190600101906114cf565b5b5090506114f891906115ef565b5090565b815481835581811115611529576002028160020283600052602060002091820191016115289190611614565b5b505050565b81548183558181111561155b5760050281600502836000526020600020918201910161155a919061164b565b5b505050565b6115ec91905b808211156115e85760008082016000905560018201600090556002820160009055600382016000905560048201600061159f919061169a565b6005820160006115af919061169a565b6006820160006115bf919061169a565b6007820160006115cf919061169a565b6008820160006115df919061169a565b50600901611566565b5090565b90565b61161191905b8082111561160d5760008160009055506001016115f5565b5090565b90565b61164891905b808211156116445760008082016000905560018201600061163b91906116e2565b5060020161161a565b5090565b90565b61169791905b8082111561169357600080820160009055600182016000611672919061169a565b60028201600090556003820160009055600482016000905550600501611651565b5090565b90565b50805460018160011615610100020316600290046000825580601f106116c057506116df565b601f0160209004906000526020600020908101906116de91906115ef565b5b50565b508054600082559060005260206000209081019061170091906115ef565b5056fea265627a7a72315820c6660de89259d03a002fd8541d384885ed72ada41b57cf21925c101ea38368f464736f6c63430005100032",
  "source": "pragma solidity >=0.4.21 <0.7.0;\n\ncontract Election {\n\n  struct Candidate {  // 후보자\n    uint candidateId;\n    uint electionId;  // 소속 선거\n    uint symbolNumber;  // 기호 (소속 선거에서의 등록 순서)\n    uint voteCount; // 득표수\n\n    // 정 입후보자 정보\n    string presidentName;\n    string presidentDept;\n\n    // 부 입후보자 정보\n    string vpresidentName;\n    string vpresidentDept;\n\n    string pledges; // 공약\n  }\n\n  struct ElectionUhs {  // 생성자와 구분하기 위해 Uhs를 덧붙임\n    uint electionId;\n    string electionName;  // 선거 이름 (ex. 총학생회 선거)\n    uint isStarted; // 0 : 시작 전, 1 : 진행 중, 2 : 종료\n\n    uint collegeId; // 선거 가능한 단과대\n    uint deptId;  // 선거 가능한 학과\n  }\n\n  struct Voter {\n    uint studentId; // 학번\n    uint[] votedElection; // 투표 완료한 선거들\n  }\n\n  Candidate[] public candidateList;\n  ElectionUhs[] public electionList;\n  Voter[] public voterList;\n\n  function addCandidate(uint _electionId,\n    string memory _presidentName, string memory _presidentDept,\n    string memory _vpresidentName, string memory _vpresidentDept,\n    string memory _pledges) public {\n    candidateList.length += 1;\n    uint index = candidateList.length - 1;\n    candidateList[index].candidateId = index;\n    candidateList[index].electionId = _electionId;\n    candidateList[index].voteCount = 0;\n    candidateList[index].presidentName = _presidentName;\n    candidateList[index].presidentDept = _presidentDept;\n    candidateList[index].vpresidentName = _vpresidentName;\n    candidateList[index].vpresidentDept = _vpresidentDept;\n    candidateList[index].pledges = _pledges;\n\n    uint symbolNumber;\n    for(uint i=0; i<candidateList.length; i++) {\n      if(candidateList[i].electionId == _electionId) {\n        symbolNumber++;\n      }\n    }\n    candidateList[index].symbolNumber = symbolNumber;\n  }\n\n  function getCandidateCount() public view returns(uint) {\n    return candidateList.length;\n  }\n\n  function addElection(string memory _electionName, uint _collegeId, uint _deptId) public {\n    electionList.length += 1;\n    uint index = electionList.length - 1;\n    electionList[index].electionId = index;\n    electionList[index].electionName = _electionName;\n    electionList[index].isStarted = 0;\n    electionList[index].collegeId = _collegeId;\n    electionList[index].deptId = _deptId;\n  }\n\n  function getElectionCount() public view returns(uint) {\n    return electionList.length;\n  }\n\n  function addVoter(uint _studentId) public {\n    voterList.length += 1;\n    uint index = voterList.length - 1;\n    voterList[index].studentId = _studentId;\n  }\n\n  function getVoterCount() public view returns(uint) {\n    return voterList.length;\n  }\n\n  // checkVoted == false일 때만 실행\n  function vote(uint _studentId, uint _candidateId) public {\n    uint electionId = candidateList[_candidateId].electionId;\n\n    uint cnt = 0;\n\n    // 현재 로그인 한 유권자가 voterList에 등록이 되어있는지 확인하기 위함\n    for(uint i=0; i<voterList.length; i++) {\n      if(voterList[i].studentId == _studentId) break;\n      else cnt += 1;\n    }\n\n    if(cnt == voterList.length) { // 로그인 한 유권자가 voterList에 없으면\n      addVoter(_studentId); // 등록\n    }\n\n    for(uint i=0; i<voterList.length; i++) {\n      if(voterList[i].studentId == _studentId) {\n        // 중복 투표 방지 & 진행중인 선거에만 참여 가능\n        if(!checkVoted(_studentId, electionId) && electionList[electionId].isStarted == 1) {\n          voterList[i].votedElection.push(electionId); // 투표한 선거장 기록\n          candidateList[_candidateId].voteCount += 1; // 후보자는 득표함\n        }\n      }\n    }\n\n    emit votedEvent(_candidateId);\n  }\n\n  // 투표 여부 확인\n  function checkVoted(uint _studentId, uint _electionId) public view returns(bool) {\n    for(uint i=0; i<voterList.length; i++) {\n      if(voterList[i].studentId == _studentId) {\n        for(uint j=0; j<voterList[i].votedElection.length; j++) {\n          if(voterList[i].votedElection[j] == _electionId) {  // 투표를 했다면\n            return true;  // true 반환\n          }\n        }\n      }\n    }\n    return false;\n  }\n\n  function startElection(uint _electionId) public {  // 선거 시작\n    electionList[_electionId].isStarted = 1;\n  }\n\n  function endElection(uint _electionId) public {  // 선거 종료\n    electionList[_electionId].isStarted = 2;\n  }\n\n  /*\n  // 현재 진행중인 선거인지 확인\n  function getElectionState(uint _electionId) public view returns(bool) {\n    return electionList[_electionId].isStarted;\n  }\n\n  // 후보자 득표 수 리턴\n  function getCount(uint _index) public view returns(uint, uint, uint) {\n    return (candidateList[_index].electionId, candidateList[_index].candidateId,\n      candidateList[_index].voteCount);\n  }\n  */\n\n  // 투표 이벤트\n  event votedEvent (\n    uint indexed _candidateId\n  );\n\n  constructor () public {\n    /*\n\n    // 선거\n    addElection(\"2019학년도 총학생회 선거\", 0, 0);\n    addElection(\"2019학년도 이공대학 학생회 선거\", 4, 0);\n    addElection(\"2019학년도 컴퓨터공학과 학생회 선거\", 4, 14);\n    addElection(\"2020학년도 총학생회 선거\", 0, 0);\n    addElection(\"2020학년도 이공대학 학생회 선거\", 4, 0);\n    addElection(\"2020학년도 컴퓨터공학과 학생회 선거\", 4, 14);\n    addElection(\"2020학년도 예술대학 학생회 선거\", 5, 0);\n\n    // 선거 시작\n    startElection(3); startElection(4);\n\n    // 선거 종료\n    endElection(0); endElection(1); endElection(2);\n\n    // 2019 총학생회 선거 후보자들\n    addCandidate(0, \"홍길동\", \"컴퓨터공학과\", \"한다연\", \"경영학과\", \"1. 공약1입니다.\\n2. 공약2입니다.\");\n    addCandidate(0, \"김철수\", \"경영학과\", \"백경문\", \"아동보육학과\", \"1. 적극적 소통\\n2. 강의실 환경 개선\");\n    addCandidate(0, \"김영희\", \"사회복지학과\", \"김주영\", \"컴퓨터공학과\", \"최고의 학교를 만들겠습니다\");\n    candidateList[0].voteCount = 182;\n    candidateList[1].voteCount = 75;\n    candidateList[2].voteCount = 93;\n\n    // 2019 이공대학 학생회 선거 후보자들\n    addCandidate(1, \"강준상\", \"생명과학과\", \"한서진\", \"컴퓨터공학과\", \"1. 기호1번 공약1입니다.\\n2. 기호1번 공약2입니다.\");\n    addCandidate(1, \"이수임\", \"보건관리학과\", \"황치영\", \"도시공학과\", \"1. 기호2번 공약1입니다.\\n2. 기호2번 공약2입니다.\");\n    candidateList[3].voteCount = 83;\n    candidateList[4].voteCount = 25;\n\n    // 2019 컴퓨터공학과 학생회 선거 후보자들\n    addCandidate(2, \"노승혜\", \"컴퓨터공학과\", \"차민혁\", \"컴퓨터공학과\", \"1. 컴퓨터공학과 공약1입니다.\\n2. 컴퓨터공학과 공약2입니다.\");\n    candidateList[5].voteCount = 28;\n\n    // 2020 총학생회 선거 후보자들\n    addCandidate(3, \"홍길동\", \"컴퓨터공학과\", \"한다연\", \"경영학과\", \"1. 공약1입니다.\\n2. 공약2입니다.\");\n    addCandidate(3, \"김철수\", \"경영학과\", \"백경문\", \"아동보육학과\", \"1. 적극적 소통\\n2. 강의실 환경 개선\");\n    addCandidate(3, \"김영희\", \"사회복지학과\", \"김주영\", \"컴퓨터공학과\", \"최고의 학교를 만들겠습니다\");\n\n    // 2020 이공대학 학생회 선거 후보자들\n    addCandidate(4, \"강준상\", \"생명과학과\", \"한서진\", \"컴퓨터공학과\", \"1. 기호1번 공약1입니다.\\n2. 기호1번 공약2입니다.\");\n    addCandidate(4, \"이수임\", \"보건관리학과\", \"황치영\", \"도시공학과\", \"1. 기호2번 공약1입니다.\\n2. 기호2번 공약2입니다.\");\n\n    // 2020 컴퓨터공학과 학생회 선거 후보자들\n    addCandidate(5, \"노승혜\", \"컴퓨터공학과\", \"차민혁\", \"컴퓨터공학과\", \"1. 컴퓨터공학과 공약1입니다.\\n2. 컴퓨터공학과 공약2입니다.\");\n\n    */\n  }\n}\n",
  "sourcePath": "C:\\Users\\minju\\blockchain-project\\hyupsung-election-app-test\\contracts\\Election.sol",
  "compiler": {
    "name": "solc",
    "version": "0.5.16+commit.9c3226ce.Emscripten.clang"
  },
  "schemaVersion": "3.1.0",
  "updatedAt": "2020-08-25T10:42:15.003Z",
  "networkType": "ethereum",
  "devdoc": {
    "methods": {}
  },
  "userdoc": {
    "methods": {}
  }
}