{
  "contractName": "Election",
  "abi": [
    {
      "inputs": [],
      "payable": false,
      "stateMutability": "nonpayable",
      "type": "constructor"
    },
    {
      "anonymous": false,
      "inputs": [
        {
          "indexed": true,
          "internalType": "uint256",
          "name": "_candidateId",
          "type": "uint256"
        }
      ],
      "name": "votedEvent",
      "type": "event"
    },
    {
      "constant": true,
      "inputs": [
        {
          "internalType": "uint256",
          "name": "",
          "type": "uint256"
        }
      ],
      "name": "candidateList",
      "outputs": [
        {
          "internalType": "uint256",
          "name": "candidateId",
          "type": "uint256"
        },
        {
          "internalType": "uint256",
          "name": "electionId",
          "type": "uint256"
        },
        {
          "internalType": "uint256",
          "name": "symbolNumber",
          "type": "uint256"
        },
        {
          "internalType": "uint256",
          "name": "voteCount",
          "type": "uint256"
        },
        {
          "internalType": "string",
          "name": "presidentName",
          "type": "string"
        },
        {
          "internalType": "string",
          "name": "presidentDept",
          "type": "string"
        },
        {
          "internalType": "string",
          "name": "vpresidentName",
          "type": "string"
        },
        {
          "internalType": "string",
          "name": "vpresidentDept",
          "type": "string"
        },
        {
          "internalType": "string",
          "name": "pledges",
          "type": "string"
        }
      ],
      "payable": false,
      "stateMutability": "view",
      "type": "function"
    },
    {
      "constant": true,
      "inputs": [
        {
          "internalType": "uint256",
          "name": "",
          "type": "uint256"
        }
      ],
      "name": "electionList",
      "outputs": [
        {
          "internalType": "uint256",
          "name": "electionId",
          "type": "uint256"
        },
        {
          "internalType": "string",
          "name": "electionName",
          "type": "string"
        },
        {
          "internalType": "uint256",
          "name": "isStarted",
          "type": "uint256"
        },
        {
          "internalType": "uint256",
          "name": "collegeId",
          "type": "uint256"
        },
        {
          "internalType": "uint256",
          "name": "deptId",
          "type": "uint256"
        }
      ],
      "payable": false,
      "stateMutability": "view",
      "type": "function"
    },
    {
      "constant": true,
      "inputs": [
        {
          "internalType": "uint256",
          "name": "",
          "type": "uint256"
        }
      ],
      "name": "voterList",
      "outputs": [
        {
          "internalType": "uint256",
          "name": "studentId",
          "type": "uint256"
        }
      ],
      "payable": false,
      "stateMutability": "view",
      "type": "function"
    },
    {
      "constant": false,
      "inputs": [
        {
          "internalType": "uint256",
          "name": "_electionId",
          "type": "uint256"
        },
        {
          "internalType": "string",
          "name": "_presidentName",
          "type": "string"
        },
        {
          "internalType": "string",
          "name": "_presidentDept",
          "type": "string"
        },
        {
          "internalType": "string",
          "name": "_vpresidentName",
          "type": "string"
        },
        {
          "internalType": "string",
          "name": "_vpresidentDept",
          "type": "string"
        },
        {
          "internalType": "string",
          "name": "_pledges",
          "type": "string"
        }
      ],
      "name": "addCandidate",
      "outputs": [],
      "payable": false,
      "stateMutability": "nonpayable",
      "type": "function"
    },
    {
      "constant": true,
      "inputs": [],
      "name": "getCandidateCount",
      "outputs": [
        {
          "internalType": "uint256",
          "name": "",
          "type": "uint256"
        }
      ],
      "payable": false,
      "stateMutability": "view",
      "type": "function"
    },
    {
      "constant": false,
      "inputs": [
        {
          "internalType": "string",
          "name": "_electionName",
          "type": "string"
        },
        {
          "internalType": "uint256",
          "name": "_collegeId",
          "type": "uint256"
        },
        {
          "internalType": "uint256",
          "name": "_deptId",
          "type": "uint256"
        }
      ],
      "name": "addElection",
      "outputs": [],
      "payable": false,
      "stateMutability": "nonpayable",
      "type": "function"
    },
    {
      "constant": true,
      "inputs": [],
      "name": "getElectionCount",
      "outputs": [
        {
          "internalType": "uint256",
          "name": "",
          "type": "uint256"
        }
      ],
      "payable": false,
      "stateMutability": "view",
      "type": "function"
    },
    {
      "constant": false,
      "inputs": [
        {
          "internalType": "uint256",
          "name": "_studentId",
          "type": "uint256"
        }
      ],
      "name": "addVoter",
      "outputs": [],
      "payable": false,
      "stateMutability": "nonpayable",
      "type": "function"
    },
    {
      "constant": true,
      "inputs": [],
      "name": "getVoterCount",
      "outputs": [
        {
          "internalType": "uint256",
          "name": "",
          "type": "uint256"
        }
      ],
      "payable": false,
      "stateMutability": "view",
      "type": "function"
    },
    {
      "constant": false,
      "inputs": [
        {
          "internalType": "uint256",
          "name": "_studentId",
          "type": "uint256"
        },
        {
          "internalType": "uint256",
          "name": "_candidateId",
          "type": "uint256"
        }
      ],
      "name": "vote",
      "outputs": [],
      "payable": false,
      "stateMutability": "nonpayable",
      "type": "function"
    },
    {
      "constant": true,
      "inputs": [
        {
          "internalType": "uint256",
          "name": "_studentId",
          "type": "uint256"
        },
        {
          "internalType": "uint256",
          "name": "_electionId",
          "type": "uint256"
        }
      ],
      "name": "checkVoted",
      "outputs": [
        {
          "internalType": "bool",
          "name": "",
          "type": "bool"
        }
      ],
      "payable": false,
      "stateMutability": "view",
      "type": "function"
    },
    {
      "constant": false,
      "inputs": [
        {
          "internalType": "uint256",
          "name": "_electionId",
          "type": "uint256"
        }
      ],
      "name": "startElection",
      "outputs": [],
      "payable": false,
      "stateMutability": "nonpayable",
      "type": "function"
    },
    {
      "constant": false,
      "inputs": [
        {
          "internalType": "uint256",
          "name": "_electionId",
          "type": "uint256"
        }
      ],
      "name": "endElection",
      "outputs": [],
      "payable": false,
      "stateMutability": "nonpayable",
      "type": "function"
    }
  ],
  "bytecode": "0x60806040523480156200001157600080fd5b506200003f60405180606001604052806021815260200162002c126021913960008062000ec560201b60201c565b6200006d6040518060600160405280602b815260200162002dd4602b91396004600062000ec560201b60201c565b6200009b60405180606001604052806031815260200162002d43603191396004600e62000ec560201b60201c565b620000c860405180606001604052806021815260200162002db36021913960008062000ec560201b60201c565b620000f66040518060600160405280602b815260200162002be7602b91396004600062000ec560201b60201c565b6200012460405180606001604052806031815260200162002bb6603191396004600e62000ec560201b60201c565b620001526040518060600160405280602b815260200162002cef602b91396005600062000ec560201b60201c565b62000164600362000fb860201b60201c565b62000176600462000fb860201b60201c565b62000188600062000fdf60201b60201c565b6200019a600162000fdf60201b60201c565b620001ac600262000fdf60201b60201c565b620002b060006040518060400160405280600981526020017fed998deab8b8eb8f9900000000000000000000000000000000000000000000008152506040518060400160405280601281526020017fecbbb4ed93a8ed84b0eab3b5ed9599eab3bc00000000000000000000000000008152506040518060400160405280600981526020017fed959ceb8ba4ec97b000000000000000000000000000000000000000000000008152506040518060400160405280600c81526020017feab2bdec9881ed9599eab3bc000000000000000000000000000000000000000081525060405180606001604052806029815260200162002d1a602991396200100760201b60201c565b620003b460006040518060400160405280600981526020017feab980ecb2a0ec889800000000000000000000000000000000000000000000008152506040518060400160405280600c81526020017feab2bdec9881ed9599eab3bc00000000000000000000000000000000000000008152506040518060400160405280600981526020017febb0b1eab2bdebacb800000000000000000000000000000000000000000000008152506040518060400160405280601281526020017fec9584eb8f99ebb3b4ec9ca1ed9599eab3bc00000000000000000000000000008152506040518060600160405280602e815260200162002c82602e91396200100760201b60201c565b620004b860006040518060400160405280600981526020017feab980ec9881ed9dac00000000000000000000000000000000000000000000008152506040518060400160405280601281526020017fec82aced9a8cebb3b5eca780ed9599eab3bc00000000000000000000000000008152506040518060400160405280600981526020017feab980eca3bcec988100000000000000000000000000000000000000000000008152506040518060400160405280601281526020017fecbbb4ed93a8ed84b0eab3b5ed9599eab3bc000000000000000000000000000081525060405180606001604052806026815260200162002b90602691396200100760201b60201c565b60b660008081548110620004c857fe5b906000526020600020906009020160030181905550604b6000600181548110620004ee57fe5b906000526020600020906009020160030181905550605d60006002815481106200051457fe5b9060005260206000209060090201600301819055506200062d60016040518060400160405280600981526020017feab095eca480ec838100000000000000000000000000000000000000000000008152506040518060400160405280600f81526020017fec839debaa85eab3bced9599eab3bc00000000000000000000000000000000008152506040518060400160405280600981526020017fed959cec849ceca78400000000000000000000000000000000000000000000008152506040518060400160405280601281526020017fecbbb4ed93a8ed84b0eab3b5ed9599eab3bc00000000000000000000000000008152506040518060600160405280603f815260200162002d74603f91396200100760201b60201c565b6200073160016040518060400160405280600981526020017fec9db4ec8898ec9e8400000000000000000000000000000000000000000000008152506040518060400160405280601281526020017febb3b4eab1b4eab480eba6aced9599eab3bc00000000000000000000000000008152506040518060400160405280600981526020017fed99a9ecb998ec988100000000000000000000000000000000000000000000008152506040518060400160405280600f81526020017feb8f84ec8b9ceab3b5ed9599eab3bc00000000000000000000000000000000008152506040518060600160405280603f815260200162002cb0603f91396200100760201b60201c565b605360006003815481106200074257fe5b906000526020600020906009020160030181905550601960006004815481106200076857fe5b9060005260206000209060090201600301819055506200088160026040518060400160405280600981526020017feb85b8ec8ab9ed989c00000000000000000000000000000000000000000000008152506040518060400160405280601281526020017fecbbb4ed93a8ed84b0eab3b5ed9599eab3bc00000000000000000000000000008152506040518060400160405280600981526020017fecb0a8ebafbced988100000000000000000000000000000000000000000000008152506040518060400160405280601281526020017fecbbb4ed93a8ed84b0eab3b5ed9599eab3bc00000000000000000000000000008152506040518060800160405280604f815260200162002c33604f91396200100760201b60201c565b601c60006005815481106200089257fe5b906000526020600020906009020160030181905550620009ab60036040518060400160405280600981526020017fed998deab8b8eb8f9900000000000000000000000000000000000000000000008152506040518060400160405280601281526020017fecbbb4ed93a8ed84b0eab3b5ed9599eab3bc00000000000000000000000000008152506040518060400160405280600981526020017fed959ceb8ba4ec97b000000000000000000000000000000000000000000000008152506040518060400160405280600c81526020017feab2bdec9881ed9599eab3bc000000000000000000000000000000000000000081525060405180606001604052806029815260200162002d1a602991396200100760201b60201c565b62000aaf60036040518060400160405280600981526020017feab980ecb2a0ec889800000000000000000000000000000000000000000000008152506040518060400160405280600c81526020017feab2bdec9881ed9599eab3bc00000000000000000000000000000000000000008152506040518060400160405280600981526020017febb0b1eab2bdebacb800000000000000000000000000000000000000000000008152506040518060400160405280601281526020017fec9584eb8f99ebb3b4ec9ca1ed9599eab3bc00000000000000000000000000008152506040518060600160405280602e815260200162002c82602e91396200100760201b60201c565b62000bb360036040518060400160405280600981526020017feab980ec9881ed9dac00000000000000000000000000000000000000000000008152506040518060400160405280601281526020017fec82aced9a8cebb3b5eca780ed9599eab3bc00000000000000000000000000008152506040518060400160405280600981526020017feab980eca3bcec988100000000000000000000000000000000000000000000008152506040518060400160405280601281526020017fecbbb4ed93a8ed84b0eab3b5ed9599eab3bc000000000000000000000000000081525060405180606001604052806026815260200162002b90602691396200100760201b60201c565b62000cb760046040518060400160405280600981526020017feab095eca480ec838100000000000000000000000000000000000000000000008152506040518060400160405280600f81526020017fec839debaa85eab3bced9599eab3bc00000000000000000000000000000000008152506040518060400160405280600981526020017fed959cec849ceca78400000000000000000000000000000000000000000000008152506040518060400160405280601281526020017fecbbb4ed93a8ed84b0eab3b5ed9599eab3bc00000000000000000000000000008152506040518060600160405280603f815260200162002d74603f91396200100760201b60201c565b62000dbb60046040518060400160405280600981526020017fec9db4ec8898ec9e8400000000000000000000000000000000000000000000008152506040518060400160405280601281526020017febb3b4eab1b4eab480eba6aced9599eab3bc00000000000000000000000000008152506040518060400160405280600981526020017fed99a9ecb998ec988100000000000000000000000000000000000000000000008152506040518060400160405280600f81526020017feb8f84ec8b9ceab3b5ed9599eab3bc00000000000000000000000000000000008152506040518060600160405280603f815260200162002cb0603f91396200100760201b60201c565b62000ebf60056040518060400160405280600981526020017feb85b8ec8ab9ed989c00000000000000000000000000000000000000000000008152506040518060400160405280601281526020017fecbbb4ed93a8ed84b0eab3b5ed9599eab3bc00000000000000000000000000008152506040518060400160405280600981526020017fecb0a8ebafbced988100000000000000000000000000000000000000000000008152506040518060400160405280601281526020017fecbbb4ed93a8ed84b0eab3b5ed9599eab3bc00000000000000000000000000008152506040518060800160405280604f815260200162002c33604f91396200100760201b60201c565b62001482565b6001808181805490500191508162000ede91906200122d565b50600060018080549050039050806001828154811062000efa57fe5b906000526020600020906005020160000181905550836001828154811062000f1e57fe5b9060005260206000209060050201600101908051906020019062000f4492919062001262565b5060006001828154811062000f5557fe5b906000526020600020906005020160020181905550826001828154811062000f7957fe5b906000526020600020906005020160030181905550816001828154811062000f9d57fe5b90600052602060002090600502016004018190555050505050565b600180828154811062000fc757fe5b90600052602060002090600502016002018190555050565b60026001828154811062000fef57fe5b90600052602060002090600502016002018190555050565b6001600081818054905001915081620010219190620012e9565b506000600160008054905003905080600082815481106200103e57fe5b90600052602060002090600902016000018190555086600082815481106200106257fe5b90600052602060002090600902016001018190555060008082815481106200108657fe5b9060005260206000209060090201600301819055508560008281548110620010aa57fe5b90600052602060002090600902016004019080519060200190620010d092919062001262565b508460008281548110620010e057fe5b906000526020600020906009020160050190805190602001906200110692919062001262565b5083600082815481106200111657fe5b906000526020600020906009020160060190805190602001906200113c92919062001262565b5082600082815481106200114c57fe5b906000526020600020906009020160070190805190602001906200117292919062001262565b5081600082815481106200118257fe5b90600052602060002090600902016008019080519060200190620011a892919062001262565b50600080600090505b600080549050811015620011fe578860008281548110620011ce57fe5b9060005260206000209060090201600101541415620011f05781806001019250505b8080600101915050620011b1565b5080600083815481106200120e57fe5b9060005260206000209060090201600201819055505050505050505050565b8154818355818111156200125d576005028160050283600052602060002091820191016200125c91906200131e565b5b505050565b828054600181600116156101000203166002900490600052602060002090601f016020900481019282601f10620012a557805160ff1916838001178555620012d6565b82800160010185558215620012d6579182015b82811115620012d5578251825591602001919060010190620012b8565b5b509050620012e5919062001372565b5090565b81548183558181111562001319576009028160090283600052602060002091820191016200131891906200139a565b5b505050565b6200136f91905b808211156200136b5760008082016000905560018201600062001349919062001436565b6002820160009055600382016000905560048201600090555060050162001325565b5090565b90565b6200139791905b808211156200139357600081600090555060010162001379565b5090565b90565b6200143391905b808211156200142f57600080820160009055600182016000905560028201600090556003820160009055600482016000620013dd919062001436565b600582016000620013ef919062001436565b60068201600062001401919062001436565b60078201600062001413919062001436565b60088201600062001425919062001436565b50600901620013a1565b5090565b90565b50805460018160011615610100020316600290046000825580601f106200145e57506200147f565b601f0160209004906000526020600020908101906200147e919062001372565b5b50565b6116fe80620014926000396000f3fe608060405234801561001057600080fd5b50600436106100cf5760003560e01c80637a9ef4d91161008c578063b384abef11610066578063b384abef146107b0578063d8f7a0bb146107e8578063defb908f14610816578063e7630782146108d9576100cf565b80637a9ef4d9146104bf5780639c98bcbb1461050f578063b13c744b1461053d576100cf565b806311174a29146100d457806320e4e88b146100f2578063213785a01461041357806330a563471461043157806350e2e8af1461044f5780636d32dc4b14610491575b600080fd5b6100dc6109a8565b6040518082815260200191505060405180910390f35b610411600480360360c081101561010857600080fd5b81019080803590602001909291908035906020019064010000000081111561012f57600080fd5b82018360208201111561014157600080fd5b8035906020019184600183028401116401000000008311171561016357600080fd5b91908080601f016020809104026020016040519081016040528093929190818152602001838380828437600081840152601f19601f820116905080830192505050505050509192919290803590602001906401000000008111156101c657600080fd5b8201836020820111156101d857600080fd5b803590602001918460018302840111640100000000831117156101fa57600080fd5b91908080601f016020809104026020016040519081016040528093929190818152602001838380828437600081840152601f19601f8201169050808301925050505050505091929192908035906020019064010000000081111561025d57600080fd5b82018360208201111561026f57600080fd5b8035906020019184600183028401116401000000008311171561029157600080fd5b91908080601f016020809104026020016040519081016040528093929190818152602001838380828437600081840152601f19601f820116905080830192505050505050509192919290803590602001906401000000008111156102f457600080fd5b82018360208201111561030657600080fd5b8035906020019184600183028401116401000000008311171561032857600080fd5b91908080601f016020809104026020016040519081016040528093929190818152602001838380828437600081840152601f19601f8201169050808301925050505050505091929192908035906020019064010000000081111561038b57600080fd5b82018360208201111561039d57600080fd5b803590602001918460018302840111640100000000831117156103bf57600080fd5b91908080601f016020809104026020016040519081016040528093929190818152602001838380828437600081840152601f19601f8201169050808301925050505050505091929192905050506109b5565b005b61041b610bc2565b6040518082815260200191505060405180910390f35b610439610bcf565b6040518082815260200191505060405180910390f35b61047b6004803603602081101561046557600080fd5b8101908080359060200190929190505050610bdb565b6040518082815260200191505060405180910390f35b6104bd600480360360208110156104a757600080fd5b8101908080359060200190929190505050610c06565b005b6104f5600480360360408110156104d557600080fd5b810190808035906020019092919080359060200190929190505050610c2c565b604051808215151515815260200191505060405180910390f35b61053b6004803603602081101561052557600080fd5b8101908080359060200190929190505050610d04565b005b6105696004803603602081101561055357600080fd5b8101908080359060200190929190505050610d2b565b604051808a8152602001898152602001888152602001878152602001806020018060200180602001806020018060200186810386528b818151815260200191508051906020019080838360005b838110156105d15780820151818401526020810190506105b6565b50505050905090810190601f1680156105fe5780820380516001836020036101000a031916815260200191505b5086810385528a818151815260200191508051906020019080838360005b8381101561063757808201518184015260208101905061061c565b50505050905090810190601f1680156106645780820380516001836020036101000a031916815260200191505b50868103845289818151815260200191508051906020019080838360005b8381101561069d578082015181840152602081019050610682565b50505050905090810190601f1680156106ca5780820380516001836020036101000a031916815260200191505b50868103835288818151815260200191508051906020019080838360005b838110156107035780820151818401526020810190506106e8565b50505050905090810190601f1680156107305780820380516001836020036101000a031916815260200191505b50868103825287818151815260200191508051906020019080838360005b8381101561076957808201518184015260208101905061074e565b50505050905090810190601f1680156107965780820380516001836020036101000a031916815260200191505b509e50505050505050505050505050505060405180910390f35b6107e6600480360360408110156107c657600080fd5b81019080803590602001909291908035906020019092919050505061107e565b005b610814600480360360208110156107fe57600080fd5b81019080803590602001909291905050506111fe565b005b6108426004803603602081101561082c57600080fd5b810190808035906020019092919050505061124b565b6040518086815260200180602001858152602001848152602001838152602001828103825286818151815260200191508051906020019080838360005b8381101561089a57808201518184015260208101905061087f565b50505050905090810190601f1680156108c75780820380516001836020036101000a031916815260200191505b50965050505050505060405180910390f35b6109a6600480360360608110156108ef57600080fd5b810190808035906020019064010000000081111561090c57600080fd5b82018360208201111561091e57600080fd5b8035906020019184600183028401116401000000008311171561094057600080fd5b91908080601f016020809104026020016040519081016040528093929190818152602001838380828437600081840152601f19601f8201169050808301925050505050505091929192908035906020019092919080359060200190929190505050611326565b005b6000600280549050905090565b60016000818180549050019150816109cd9190611410565b506000600160008054905003905080600082815481106109e957fe5b9060005260206000209060090201600001819055508660008281548110610a0c57fe5b9060005260206000209060090201600101819055506000808281548110610a2f57fe5b9060005260206000209060090201600301819055508560008281548110610a5257fe5b90600052602060002090600902016004019080519060200190610a76929190611442565b508460008281548110610a8557fe5b90600052602060002090600902016005019080519060200190610aa9929190611442565b508360008281548110610ab857fe5b90600052602060002090600902016006019080519060200190610adc929190611442565b508260008281548110610aeb57fe5b90600052602060002090600902016007019080519060200190610b0f929190611442565b508160008281548110610b1e57fe5b90600052602060002090600902016008019080519060200190610b42929190611442565b50600080600090505b600080549050811015610b94578860008281548110610b6657fe5b9060005260206000209060090201600101541415610b875781806001019250505b8080600101915050610b4b565b508060008381548110610ba357fe5b9060005260206000209060090201600201819055505050505050505050565b6000600180549050905090565b60008080549050905090565b60028181548110610be857fe5b90600052602060002090600202016000915090508060000154905081565b6001808281548110610c1457fe5b90600052602060002090600502016002018190555050565b600080600090505b600280549050811015610cf8578360028281548110610c4f57fe5b9060005260206000209060020201600001541415610ceb5760008090505b60028281548110610c7a57fe5b906000526020600020906002020160010180549050811015610ce9578360028381548110610ca457fe5b90600052602060002090600202016001018281548110610cc057fe5b90600052602060002001541415610cdc57600192505050610cfe565b8080600101915050610c6d565b505b8080600101915050610c34565b50600090505b92915050565b600260018281548110610d1357fe5b90600052602060002090600502016002018190555050565b60008181548110610d3857fe5b9060005260206000209060090201600091509050806000015490806001015490806002015490806003015490806004018054600181600116156101000203166002900480601f016020809104026020016040519081016040528092919081815260200182805460018160011615610100020316600290048015610dfc5780601f10610dd157610100808354040283529160200191610dfc565b820191906000526020600020905b815481529060010190602001808311610ddf57829003601f168201915b505050505090806005018054600181600116156101000203166002900480601f016020809104026020016040519081016040528092919081815260200182805460018160011615610100020316600290048015610e9a5780601f10610e6f57610100808354040283529160200191610e9a565b820191906000526020600020905b815481529060010190602001808311610e7d57829003601f168201915b505050505090806006018054600181600116156101000203166002900480601f016020809104026020016040519081016040528092919081815260200182805460018160011615610100020316600290048015610f385780601f10610f0d57610100808354040283529160200191610f38565b820191906000526020600020905b815481529060010190602001808311610f1b57829003601f168201915b505050505090806007018054600181600116156101000203166002900480601f016020809104026020016040519081016040528092919081815260200182805460018160011615610100020316600290048015610fd65780601f10610fab57610100808354040283529160200191610fd6565b820191906000526020600020905b815481529060010190602001808311610fb957829003601f168201915b505050505090806008018054600181600116156101000203166002900480601f0160208091040260200160405190810160405280929190818152602001828054600181600116156101000203166002900480156110745780601f1061104957610100808354040283529160200191611074565b820191906000526020600020905b81548152906001019060200180831161105757829003601f168201915b5050505050905089565b600080828154811061108c57fe5b9060005260206000209060090201600101549050600080905060008090505b6002805490508110156110f65784600282815481106110c657fe5b90600052602060002090600202016000015414156110e3576110f6565b60018201915080806001019150506110ab565b5060028054905081141561110e5761110d846111fe565b5b60008090505b6002805490508110156111ca57846002828154811061112f57fe5b90600052602060002090600202016000015414156111bd576002818154811061115457fe5b906000526020600020906002020160010183908060018154018082558091505090600182039060005260206000200160009091929091909150555060016000858154811061119e57fe5b9060005260206000209060090201600301600082825401925050819055505b8080600101915050611114565b50827ffff3c900d938d21d0990d786e819f29b8d05c1ef587b462b939609625b684b1660405160405180910390a250505050565b600160028181805490500191508161121691906114c2565b5060006001600280549050039050816002828154811061123257fe5b9060005260206000209060020201600001819055505050565b6001818154811061125857fe5b9060005260206000209060050201600091509050806000015490806001018054600181600116156101000203166002900480601f01602080910402602001604051908101604052809291908181526020018280546001816001161561010002031660029004801561130a5780601f106112df5761010080835404028352916020019161130a565b820191906000526020600020905b8154815290600101906020018083116112ed57829003601f168201915b5050505050908060020154908060030154908060040154905085565b6001808181805490500191508161133d91906114f4565b50600060018080549050039050806001828154811061135857fe5b906000526020600020906005020160000181905550836001828154811061137b57fe5b9060005260206000209060050201600101908051906020019061139f929190611442565b506000600182815481106113af57fe5b90600052602060002090600502016002018190555082600182815481106113d257fe5b90600052602060002090600502016003018190555081600182815481106113f557fe5b90600052602060002090600502016004018190555050505050565b81548183558181111561143d5760090281600902836000526020600020918201910161143c9190611526565b5b505050565b828054600181600116156101000203166002900490600052602060002090601f016020900481019282601f1061148357805160ff19168380011785556114b1565b828001600101855582156114b1579182015b828111156114b0578251825591602001919060010190611495565b5b5090506114be91906115b5565b5090565b8154818355818111156114ef576002028160020283600052602060002091820191016114ee91906115da565b5b505050565b815481835581811115611521576005028160050283600052602060002091820191016115209190611611565b5b505050565b6115b291905b808211156115ae576000808201600090556001820160009055600282016000905560038201600090556004820160006115659190611660565b6005820160006115759190611660565b6006820160006115859190611660565b6007820160006115959190611660565b6008820160006115a59190611660565b5060090161152c565b5090565b90565b6115d791905b808211156115d35760008160009055506001016115bb565b5090565b90565b61160e91905b8082111561160a5760008082016000905560018201600061160191906116a8565b506002016115e0565b5090565b90565b61165d91905b80821115611659576000808201600090556001820160006116389190611660565b60028201600090556003820160009055600482016000905550600501611617565b5090565b90565b50805460018160011615610100020316600290046000825580601f1061168657506116a5565b601f0160209004906000526020600020908101906116a491906115b5565b5b50565b50805460008255906000526020600020908101906116c691906115b5565b5056fea265627a7a72315820e71f2983142ea82a6056aad1038adf8f4cb57d2d67b54dd5f5a6b19d05ff619864736f6c63430005100032ecb59ceab3a0ec9d9820ed9599eab590eba5bc20eba78ceb93a4eab2a0ec8ab5eb8b88eb8ba432303230ed9599eb8584eb8f8420ecbbb4ed93a8ed84b0eab3b5ed9599eab3bc20ed9599ec839ded9a8c20ec84a0eab1b032303230ed9599eb8584eb8f8420ec9db4eab3b5eb8c80ed959920ed9599ec839ded9a8c20ec84a0eab1b032303139ed9599eb8584eb8f8420ecb49ded9599ec839ded9a8c20ec84a0eab1b0312e20ecbbb4ed93a8ed84b0eab3b5ed9599eab3bc20eab3b5ec95bd31ec9e85eb8b88eb8ba42e0a322e20ecbbb4ed93a8ed84b0eab3b5ed9599eab3bc20eab3b5ec95bd32ec9e85eb8b88eb8ba42e312e20eca081eab7b9eca08120ec868ced86b50a322e20eab095ec9d98ec8ba420ed9998eab2bd20eab09cec84a0312e20eab8b0ed98b832ebb28820eab3b5ec95bd31ec9e85eb8b88eb8ba42e0a322e20eab8b0ed98b832ebb28820eab3b5ec95bd32ec9e85eb8b88eb8ba42e32303230ed9599eb8584eb8f8420ec9888ec88a0eb8c80ed959920ed9599ec839ded9a8c20ec84a0eab1b0312e20eab3b5ec95bd31ec9e85eb8b88eb8ba42e0a322e20eab3b5ec95bd32ec9e85eb8b88eb8ba42e32303139ed9599eb8584eb8f8420ecbbb4ed93a8ed84b0eab3b5ed9599eab3bc20ed9599ec839ded9a8c20ec84a0eab1b0312e20eab8b0ed98b831ebb28820eab3b5ec95bd31ec9e85eb8b88eb8ba42e0a322e20eab8b0ed98b831ebb28820eab3b5ec95bd32ec9e85eb8b88eb8ba42e32303230ed9599eb8584eb8f8420ecb49ded9599ec839ded9a8c20ec84a0eab1b032303139ed9599eb8584eb8f8420ec9db4eab3b5eb8c80ed959920ed9599ec839ded9a8c20ec84a0eab1b0",
  "source": "pragma solidity >=0.4.21 <0.7.0;\n\ncontract Election {\n\n  struct Candidate {  // \n    uint candidateId;\n    uint electionId;  //  \n    uint symbolNumber;  //  (   )\n    uint voteCount; // \n\n    //   \n    string presidentName;\n    string presidentDept;\n\n    //   \n    string vpresidentName;\n    string vpresidentDept;\n\n    string pledges; // \n  }\n\n  struct ElectionUhs {  //    Uhs \n    uint electionId;\n    string electionName;  //   (ex.  )\n    uint isStarted; // 0 :  , 1 :  , 2 : \n\n    uint collegeId; //   \n    uint deptId;  //   \n  }\n\n  struct Voter {\n    uint studentId; // \n    uint[] votedElection; //   \n  }\n\n  Candidate[] public candidateList;\n  ElectionUhs[] public electionList;\n  Voter[] public voterList;\n\n  function addCandidate(uint _electionId,\n    string memory _presidentName, string memory _presidentDept,\n    string memory _vpresidentName, string memory _vpresidentDept,\n    string memory _pledges) public {\n    candidateList.length += 1;\n    uint index = candidateList.length - 1;\n    candidateList[index].candidateId = index;\n    candidateList[index].electionId = _electionId;\n    candidateList[index].voteCount = 0;\n    candidateList[index].presidentName = _presidentName;\n    candidateList[index].presidentDept = _presidentDept;\n    candidateList[index].vpresidentName = _vpresidentName;\n    candidateList[index].vpresidentDept = _vpresidentDept;\n    candidateList[index].pledges = _pledges;\n\n    uint symbolNumber;\n    for(uint i=0; i<candidateList.length; i++) {\n      if(candidateList[i].electionId == _electionId) {\n        symbolNumber++;\n      }\n    }\n    candidateList[index].symbolNumber = symbolNumber;\n  }\n\n  function getCandidateCount() public view returns(uint) {\n    return candidateList.length;\n  }\n\n  function addElection(string memory _electionName, uint _collegeId, uint _deptId) public {\n    electionList.length += 1;\n    uint index = electionList.length - 1;\n    electionList[index].electionId = index;\n    electionList[index].electionName = _electionName;\n    electionList[index].isStarted = 0;\n    electionList[index].collegeId = _collegeId;\n    electionList[index].deptId = _deptId;\n  }\n\n  function getElectionCount() public view returns(uint) {\n    return electionList.length;\n  }\n\n  function addVoter(uint _studentId) public {\n    voterList.length += 1;\n    uint index = voterList.length - 1;\n    voterList[index].studentId = _studentId;\n  }\n\n  function getVoterCount() public view returns(uint) {\n    return voterList.length;\n  }\n\n  // checkVoted == false  \n  function vote(uint _studentId, uint _candidateId) public {\n    uint electionId = candidateList[_candidateId].electionId;\n\n    uint cnt = 0;\n\n    //     voterList    \n    for(uint i=0; i<voterList.length; i++) {\n      if(voterList[i].studentId == _studentId) break;\n      else cnt += 1;\n    }\n\n    if(cnt == voterList.length) { //    voterList \n      addVoter(_studentId); // \n    }\n\n    for(uint i=0; i<voterList.length; i++) {\n      if(voterList[i].studentId == _studentId) {\n        voterList[i].votedElection.push(electionId); //   \n        candidateList[_candidateId].voteCount += 1; //  \n      }\n    }\n\n    emit votedEvent(_candidateId);\n  }\n\n  //   \n  function checkVoted(uint _studentId, uint _electionId) public view returns(bool) {\n    for(uint i=0; i<voterList.length; i++) {\n      if(voterList[i].studentId == _studentId) {\n        for(uint j=0; j<voterList[i].votedElection.length; j++) {\n          if(voterList[i].votedElection[j] == _electionId) {\n            return true;\n          }\n        }\n      }\n    }\n    return false;\n  }\n\n  function startElection(uint _electionId) public {  //  \n    electionList[_electionId].isStarted = 1;\n  }\n\n  function endElection(uint _electionId) public {  //  \n    electionList[_electionId].isStarted = 2;\n  }\n\n  /*\n  //    \n  function getElectionState(uint _electionId) public view returns(bool) {\n    return electionList[_electionId].isStarted;\n  }\n\n  //    \n  function getCount(uint _index) public view returns(uint, uint, uint) {\n    return (candidateList[_index].electionId, candidateList[_index].candidateId,\n      candidateList[_index].voteCount);\n  }\n  */\n\n  //  \n  event votedEvent (\n    uint indexed _candidateId\n  );\n\n  constructor () public {\n    // \n    addElection(\"2019  \", 0, 0);\n    addElection(\"2019   \", 4, 0);\n    addElection(\"2019   \", 4, 14);\n    addElection(\"2020  \", 0, 0);\n    addElection(\"2020   \", 4, 0);\n    addElection(\"2020   \", 4, 14);\n    addElection(\"2020   \", 5, 0);\n\n    //  \n    startElection(3); startElection(4);\n\n    //  \n    endElection(0); endElection(1); endElection(2);\n\n    // 2019   \n    addCandidate(0, \"\", \"\", \"\", \"\", \"1. 1.\\n2. 2.\");\n    addCandidate(0, \"\", \"\", \"\", \"\", \"1.  \\n2.   \");\n    addCandidate(0, \"\", \"\", \"\", \"\", \"  \");\n    candidateList[0].voteCount = 182;\n    candidateList[1].voteCount = 75;\n    candidateList[2].voteCount = 93;\n\n    // 2019    \n    addCandidate(1, \"\", \"\", \"\", \"\", \"1. 1 1.\\n2. 1 2.\");\n    addCandidate(1, \"\", \"\", \"\", \"\", \"1. 2 1.\\n2. 2 2.\");\n    candidateList[3].voteCount = 83;\n    candidateList[4].voteCount = 25;\n\n    // 2019    \n    addCandidate(2, \"\", \"\", \"\", \"\", \"1.  1.\\n2.  2.\");\n    candidateList[5].voteCount = 28;\n\n    // 2020   \n    addCandidate(3, \"\", \"\", \"\", \"\", \"1. 1.\\n2. 2.\");\n    addCandidate(3, \"\", \"\", \"\", \"\", \"1.  \\n2.   \");\n    addCandidate(3, \"\", \"\", \"\", \"\", \"  \");\n\n    // 2020    \n    addCandidate(4, \"\", \"\", \"\", \"\", \"1. 1 1.\\n2. 1 2.\");\n    addCandidate(4, \"\", \"\", \"\", \"\", \"1. 2 1.\\n2. 2 2.\");\n\n    // 2020    \n    addCandidate(5, \"\", \"\", \"\", \"\", \"1.  1.\\n2.  2.\");\n  }\n}\n",
  "sourcePath": "C:\\Users\\minju\\blockchain-project\\hyupsung-election-app-test\\contracts\\Election.sol",
  "compiler": {
    "name": "solc",
    "version": "0.5.16+commit.9c3226ce.Emscripten.clang"
  },
  "schemaVersion": "3.1.0",
  "updatedAt": "2020-08-22T11:02:43.660Z",
  "devdoc": {
    "methods": {}
  },
  "userdoc": {
    "methods": {}
  }
}